S019000052544F532D4C43442D6D6178546F7563682E737265634D
S21440000008E94020A9224000A7224000A72240003D
S214400010A7224000A7224000A72240000000000080
S21440002000000000000000000000000081264000A4
S214400030A7224000000000002127400089274000FA
S214400040A7224000A7224000A7224000A722400047
S214400050A7224000A7224000A7224000A722400037
S214400060A722400000000000211C4000351C400034
S214400070491C4000A7224000A7224000A72240007B
S2144000805D1C4000711C4000A7224000A722400093
S214400090A7224000A7224000A7224000A7224000F7
S2144000A0A7224000A7224000A7224000A7224000E7
S2144000B0A722400049044000A7224000A722400053
S2144000C0A7224000A7224000A7224000A7224000C7
S2144000D0A7224000A7224000A7224000A7224000B7
S2144000E05D044000A7224000A7224000A72240000F
S2144000F0A7224000A7224000A7224000A722400097
S214400100A7224000A7224000A7224000A722400086
S214400110A722400000000000000000000000000091
S214400120A7224000A7224000A7224000A722400066
S214400130A7224000A7224000A7224000A722400056
S214400140A7224000A7224000A7224000A722400046
S214400150A7224000A7224000A7224000A722400036
S214400160A7224000A722400010B5054C237833B99B
S214400170044B13B10448AFF300800123237010BD35
S214400180C0094020000000004C6245000C4B43B1C3
S2144001900C480D4910B5AFF300800C48036823B9EE
S2144001A010BD0A48036833B97047094B002BF7D097
S2144001B0BDE810401847064B002BF5D0184700BF47
S2144001C0000000004C624500C40940204C624500D7
S2144001D00000000070B582B0026BC36A1340019302
S2144001E000241C4E1C4DA84214BF002001200501CF
S2144001F00BE00E2C1ED8019A04F10C0101238B4013
S214400200134210D10134102C22D00B2CF1D8019A75
S2144002100123A3401342F5D02B1956F82330002B68
S214400220F0D09847EEE72B1956F82330002BE9D04C
S2144002309847E7E7019A04F10F0101238B401342E8
S214400240E0D02B1956F82330002BDBD09847D9E75F
S21440025002B070BD9CC740200040064030B4046EDB
S21440026001238B4024EA03041578002D08BF0023A1
S21440027023430366446D4B000321994024EA01045E
S214400280517899402143416530BC70474B780A7895
S214400290134303678A884B8843EA024343677047A1
S2144002A000220260084B4360084B83604FF4802373
S2144002B0C36002230374012343748374C2740375BA
S2144002C043758375704700BF00A3E111808D5B00C6
S2144002D000230370012343707047002303702023DC
S2144002E04370FF23438040F6FF73838070470000CF
S2144002F0026B12F0807201D01920704710B40123AF
S2144003000360CB7C002B18BF4FF000424B688C68D4
S214400310B3FBF4F3013B1B029BB2CC6844F40004ED
S21440032023430C7C240604F0706423434C7C24074F
S21440033004F040542343134343600B7D002B14BF0B
S2144003404FF0807300230A6813434A7D002A14BF87
S2144003504FF000720022134383608B7D1B0203F430
S214400360407343F00C03C0F894300F4B984206D0CD
S2144003700E4B98420DD000205DF8044B70470C4B56
S21440038003F14001002243F8042F8B42FBD10020AA
S214400390F2E7084B03F14001002243F8042B8B425E
S2144003A0FBD10020E8E700BF00C003400040064005
S2144003B098C74020DCC740200C4B994207D00B29F9
S2144003C00BD806D0012303FA01F14162704743621D
S2144003D070474FF40063436270470E2994BF0C3158
S2144003E00F31012303FA01F141627047FF0F0047C6
S2144003F038B5114CA0420CBF102400240C440F4DBD
S21440040045F824200AD10E4A4FF48074C2F884413D
S2144004105B01DBB282F82833546009E0084A4FF0AB
S2144004200054C2F880415B01DBB282F81D33146091
S214400430044B984738BD00BF004006409CC740204C
S21440044000E100E0B903400008B50248024B984777
S21440045008BD00BF00C00340D501400008B50248B3
S214400460024B984708BD00BF00400640D5014000FB
S21440047000B583B0134B98420CBF28201D20124B6A
S2144004809847124B9B78FF2B1AD0EFF31083B3FAA2
S21440049083F35B09019372B6BFF35F8F00220C4B68
S2144004A01A700199094A93780133937029B1012251
S2144004B0074B1A70BFF35F8F62B603B05DF804FB5C
S2144004C0FEE700BF00400640A51D400094C7402000
S2144004D00A004020F0B48CB007460E4601AC114DE1
S2144004E00FCD0FC40FCD0FC495E8070084E8070072
S2144004F001AA002352F8040BB6FBF0F0B0FBF7F06D
S214400500B0F5807F07D901330B2BF3D14FF6FF7040
S2144005100CB0F0BC70470A2B94BF40EA03204FF65D
S214400520FF70F5E7C8B3400070B506460D460C6848
S21440053044B1896820460C4B984704464FF6FF73F3
S21440054098420CD0686840B1A968074B98474FF668
S214400550FF73984205D044EA0044346000242046A5
S21440056070BD0446FBE700BFD504400070B40A687F
S2144005704B6803F00F038C8A23430C8923438C7A01
S21440058043EA44238C7D43EA0443CC7D43EA444318
S2144005900C7E43EA844300EB4214C4F80032CB6836
S2144005A0C4F804320B69C4F80C328B7D3BB18C8B9B
S2144005B04B8B43EA044300EB4214C4F81832856C74
S2144005C04FF001139340DB431D40CC7F04FA02F604
S2144005D08C7F944044EA06442C438464446C234015
S2144005E091F8214004FA02F591F82040944044EAFC
S2144005F00544234343640123934091F82240002C52
S21440060051D0046A1C43046291F82440022C4FD017
S214400610D0F8C050DC432540C0F8C05091F8245074
S214400620012D4BD0856E2C40846691F82540022CD7
S21440063048D0D0F8C0501B04DC432540C0F8C0501A
S21440064091F82550012D44D0836E1C408466D2001C
S214400650C46EFF23934024EA030491F8233003FA40
S21440066002F22243C2660B6853B991F82C20012A45
S2144006708A6A22F07F4208BF42F08072C0F8A0200B
S21440068000EB4310D0F8003223F40023C0F80032C9
S214400690D0F800228B6B03F400231343C0F80032DB
S2144006A0002070BC7047046A24EA03040462ABE787
S2144006B0D0F8C0401C43C0F8C040B6E7846E1C4328
S2144006C08466B2E7D0F8C04044EA0343C0F8C0307E
S2144006D0BDE7846E23438366B9E70B69934202D233
S2144006E04FF6FF7070470B68CA6000EB4310C0F8C7
S2144006F0082200207047012303FA01F14160704749
S214400700012303FA01F18160704721B9436823F061
S214400710010343607047436843F0010343607047FA
S2144007200162704730B485688468A54203D0856806
S2144007308468AC42FBD161B1C4F3015000EB800544
S214400740C4F3034000EB450014F4800F18BF0C3090
S214400750086042B1C4F3023101EB8101C4F30320C7
S21440076000EB4101116043B1C4F3021202EB820276
S21440077004F00F0404EB42041C6030BC70470000D9
S214400780F0B4446814F0010F05D00C2903D90C3995
S2144007904FF4800700E000271C4CA4FB0356F608E5
S2144007A006EB8605A3EB450343EA0613A4FB026566
S2144007B0ED0843EA053305EB8505A2EB450543EA1C
S2144007C005233B43A4FB0142D20843EA025302EB13
S2144007D08202A1EB420143EA0141836913F0040F10
S2144007E0FBD0036843F001030360836913F0010FF5
S2144007F0FBD00123C3618160036823F001030360DB
S214400800C06A00F00100F0BC704700BFCDCCCCCC35
S21440081070B42A4DA5FB0346F608039C640544EADB
S214400820067406EB8606A3EB460344EA0363A5FB81
S2144008300264E40843EA045304EB8404A2EB440253
S21440084043EA02421E4BA3FB01439B0942EA0312C2
S2144008501C4BA3FB01435B09A5FB0364E40804EBC4
S2144008608404A3EB44031A43A5FB0143DB0803EBD4
S2144008708304A1EB440142EA0122A5FB0315ED08DF
S21440088005EB8505A3EB450542EA0532836913F07F
S214400890040FFBD0036843F002030360836913F040
S2144008A0010FFBD00123C361C260036823F002033B
S2144008B00360C06A00F0020070BC7047CDCCCCCC60
S2144008C0D34D62101F85EB51F0B587B004460E46F7
S2144008D017468160027383610025056107209D4BA2
S2144008E098472060019505950223029303900723BD
S2144008F004938DF8147001A93046974B9847401BD7
S21440090018BF0120404208B107B0F0BD2568A8795D
S21440091000EB400040008F4B9847606000230193F7
S2144009200493059307238DF8043002230293039023
S214400930AB7903EB43035B000493237B8DF81430C1
S21440094001A9A068844B9847003018BF0120404258
S2144009500028D9D127686068BB7903EB4306760048
S2144009600736B6B23A4606370021DFF8F0C192F8AD
S21440097001E0157845EA0E2585EA410111F0807FB1
S21440098018BF81EA0C010232BA42F0D1027843EA3B
S214400990022383EA410212F0807F03D082F40002F1
S2144009A082F01B02A6F10807012F12DD0123DFF8B3
S2144009B0ACE1C1184D78C15C41EA052181EA4202AA
S2144009C012F0807F18BF82EA0E0202339BB2BB420F
S2144009D0EFDB304410F8083C83EA420212F0807F96
S2144009E003D082F4000282F01B0222F07F450023EF
S2144009F0019305938DF80460360A8DF8056002234E
S214400A000293CDF80CD003230493237B8DF8143047
S214400A1001A9A068504B984728B34FF0FF33AB422C
S214400A2040F08B802568A87998B100230133DAB26C
S214400A309042FBD86268431EDBB2013303EB4303AC
S214400A4002EB4301002053791844C0B2063291426B
S214400A50F9D140003F4B98476061AB7973B10027AE
S214400A600126BE4637E09DF802209DF8003043EA56
S214400A7002439DF8012043EA0223D0E76FF00300CB
S214400A8042E70130C0B262685319197981421CD3DB
S214400A905B79002BF5D062682A445379002BF0D05E
S214400AA033461178626902F81310626902EB43021A
S214400AB050700133DBB262682A44991B92F805C035
S214400AC0C9B28C45EDD81E46DBE70137FFB2236836
S214400AD09B799F4207D207EB47035A001546636847
S214400AE013447046D4E75BB31046013BDBB2013398
S214400AF003EB430302EB4302002143791944C9B296
S214400B0006308242F9D1F1B162691378092B0FD0D1
S214400B1000230133DBB28B420CD012F8020F0928B7
S214400B20F7D15BB2B3F1FF3F10D023770020EBE65E
S214400B300023F6E76FF00300E6E66FF00300E3E617
S214400B406FF00300E0E66FF00300DDE66FF00300B1
S214400B50DAE600BF05504000252040001B0080001C
S214400B6003689A79D2B110B4446823788B420ED089
S214400B70A31D013AD2B2013202EB420204EB42021A
S214400B80934209D01C4613F8060B8842F8D1B4F8B5
S214400B9001005DF8044B70470020FAE700207047DC
S214400BA030B587B000230193049305938DF8041065
S214400BB00B0A8DF8053002230293039203689A7954
S214400BC0BAB14468B4F801308B420FD0A31D013A45
S214400BD0D2B2013202EB420204EB4202934216D0FA
S214400BE01C460633B4F801508D42F7D1E278013204
S214400BF0D2B20492037B8DF8143001A98068054B6D
S214400C009847003018BF0120404207B030BD002250
S214400C10EFE700BFD120400000B589B08DF807202F
S214400C200023039307938DF80C10090A8DF80D10D6
S214400C30022304930DF10703059301230693037BD8
S214400C408DF81C3003A98068044B9847003018BFC5
S214400C500120404209B05DF804FB00BFD1204000AF
S214400C608269074B03EB52135B02D96B02F01F02FB
S214400C70012303FA02F20A420CBF184600207047CE
S214400C800707200030B587B004460D4600220521F0
S214400C900D4B98470023019305938DF80400000AF6
S214400CA08DF8050002230293039509230493237BC2
S214400CB08DF8143001A9A068044B9847003018BF3F
S214400CC00120404207B030BD610B40002520400067
S214400CD0F0B585B004460E46174D184F2046A84737
S214400CE028B301A92046B847034610BB9DF80430F8
S214400CF0626912F81320092AF0D1227F9B1A3370BA
S214400D009DF8053073709DF808309DF806101A0956
S214400D1042EA011272809DF8072003F00F0343EA6F
S214400D200213B3809DF80930B371002301E06FF0E1
S214400D300303184605B0F0BD610C4000850C40002A
S214400D4010B51048104B98473E2100200F4B98474F
S214400D500F4CA0470028FCD00E4B98470E4A0F4B2E
S214400D609A620F4CA0470028FCD002200D4B9847B3
S214400D7000200D4B98470D4B98470D48024B98471F
S214400D8010BD00BF000E27077D244000211D4000F7
S214400D90751D4000851D4000013F182000060E408E
S214400DA0951D4000851C4000BD1C4000712340003E
S214400DB000A3E11110B50446104B984780232360EA
S214400DC0636843F001036360636843F01003636045
S214400DD0636823F08003636000212046084B9847F1
S214400DE0636823F002036360636823F00403636070
S214400DF000212046034B984710BD00BFC51D40004C
S214400E00F11D4000071E40002DE9F04104460D4606
S214400E10164615491846154B9847074600231A4666
S214400E2029682046DFF85C80C047082229682046AB
S214400E300F4B9847FAB2296820460E4B984708222F
S214400E40296820460C4B98477208296820460B4B69
S214400E50984786F0010202F0010229682046084BB6
S214400E609847BDE8F08100BF80D1F008E31E4000FF
S214400E70CF1E4000F91E4000891E40004D1E400017
S214400E806B1E4000211F400008B5436813F0040F56
S214400E9006D009680F2900D908BD064B984708BDFB
S214400EA009680329F8D8012303FA01F1C943014B25
S214400EB09847F1E7F11D40001AB110B40C461144B2
S214400EC006E00020704714F8013BC360A1420CD0F6
S214400ED043F69923026912F0020FF4D1013BF9D18F
S214400EE06FF002005DF8044B70470020FAE73AB115
S214400EF070B415460C460D44FF2640F2012112E020
S214400F0000207047C66043F69923026931EA020220
S214400F1004D0013BF9D16FF002000EE0836804F87C
S214400F20013BA5420BD043F69923026912F0020F0B
S214400F30E8D1013BF9D16FF0020070BC7047002049
S214400F40FBE700002DE9F04180B90C469046002AA8
S214400F500FDD8F18084E094D306821462B6898479C
S214400F600134BC42F8D14046BDE8F0814FF0FF382E
S214400F70F9E78046F7E700BF24C840201CC8402059
S214400F800138022815D82DE9F0410E4614469AB18C
S214400F900D46DFF838800C4FD8F8000015F8011BD6
S214400FA03B68984700280ADBA81B013CF4D1BDE803
S214400FB0F0814FF0FF3070471046BDE8F0814FF0AB
S214400FC0FF30BDE8F08100BF20C8402024C8402044
S214400FD02DE9F0414FF400429E4B5A60BFF34F8FCD
S214400FE0BFF36F8F9C4B0022C3F850225A6942F4DD
S214400FF000325A61BFF34F8FBFF36F8FD3F88070C4
S214401000C7F34E3607F007000430C7F3C907B7FAF0
S21440101087FE0EF01F0EBFF34F8F4FF0FF3404FADB
S21440102000FC06FA00F004FA0EF407FA0EFE1D461F
S2144010303A46734640EA0301C5F86012013A234433
S214401040B2F1FF3FF6D1013E6044B6F1FF3FEFD12B
S214401050BFF34F8F804B5A6942F480325A61BFF3D8
S2144010604F8FBFF36F8F7D4A7D495160A1F58071E8
S2144010705160BFF34F8FBFF36F8FD3F8902222F0AB
S2144010800102C3F89022D3F8942222F00102C3F85A
S2144010909422BFF34F8FBFF36F8F0A20714CA04747
S2144010A00B20A0470C20A0471020A0471120A047A7
S2144010B06D4E4FF48078C6F81080C6F8A080C6F80B
S2144010C030806A4C4FF400656561C4F8A050656690
S2144010D0C4F8905065652562C4F88450236F23F4A5
S2144010E000632367636F23F400636367C4F8C050EC
S2144010F0C4F8D450C4F8B0504FF400132366C4F874
S214401100903063656362C4F88030226F22F4001228
S2144011102267626F22F4001262676360544AD2F814
S214401120143143F01003C2F8143102F5B2221023F2
S2144011301366C2F8903053655362C2F88030116F20
S21440114019431167516F194351675360082222664D
S214401150C4F8902062656262C4F88020216F21F056
S21440116008012167616F21F00801616762602366AC
S214401170C4F8903063656362C4F88030226F22F012
S21440118010022267626F22F01002626763600023DB
S2144011904FF400524FF060513046364FB847002368
S2144011A04FF080424FF060513046B8470123FF224F
S2144011B04FF000613046B84701233F224FF00061B0
S2144011C02D48B84701234FF4C0324FF00061204607
S2144011D0B847012342464FF000613046B8470123E6
S2144011E02A464FF000613046B84701234FF40022AC
S2144011F04FF000612148B84700234FF400724FF08B
S21440120080513046B8474FF4007130461C4B9847E3
S2144012104FF0805174201B4CA0474FF080517520F2
S214401220A0474FF080517620A0474FF080517B205A
S214401230A0474FF060511820A0474FF0605106205D
S214401240A0474FF060515320A04753200E4B98477D
S214401250BDE8F08150180E4000ED00E0000C0E4056
S2144012600C08005AA51D400000120E40000E0E400D
S214401270008008402919400000160E4000140E4019
S21440128035184000311A4000F919400030B404685F
S214401290B4F5A07F02D340F23F1404601468B4F55E
S2144012A0A07F02D340F23F1414600C68B4F5F07F80
S2144012B002D340F2DF140C601C68B4F5F07F02D312
S2144012C040F2DF141C6004681568AC4201D9056022
S2144012D014600A681868824201D908601A6030BCF7
S2144012E07047000010B582B006200A4B984700238E
S2144012F003222C210848094CA04700230193019B58
S214401300FE2B05D8019B01330193019BFE2BF9D997
S21440131002B010BD151A400000800040191E400063
S21440132070B582B005460E4614460620144B9847C4
S2144013300023032229461348134DA8470023019350
S214401340019BFE2B05D8019B01330193019BFE2B8D
S214401350F9D90CB902B070BD06200C4B984722460E
S214401360314608480A4B984700230193019B5E2B61
S214401370F0D8019B01330193019B5E2BF9D9E9E735
S214401380151A400000800040191E4000F919400020
S214401390B90E400030B583B004460D4606200A4BD1
S2144013A098472A4621460948094B98470023019307
S2144013B0019BFE2B05D8019B01330193019BFE2B1D
S2144013C0F9D903B030BD00BFF91940000080004095
S2144013D0B90E4000014630B1034A044B013BFDD1F3
S2144013E09142FAD870477047A1860100A086010056
S2144013F000B583B058B948238DF8073001220DF167
S21440140007013620044B984703B05DF804FBE823F9
S2144014108DF80730F2E700BF2113400010B584B0C6
S214401420ADF80E00013A0244ADF80C20ADF80A10B3
S214401430013B1944ADF80810030A8DF804308DF8C6
S2144014400500C2F307238DF806308DF807200422E6
S2144014500DEB02012A20104CA047002211461046F0
S214401460A0479DF80B308DF804309DF80A308DF873
S21440147005309DF809308DF806309DF808308DF817
S214401480073004220DEB02012B20A0470022114614
S2144014901046A04704B010BD2113400008B50022F6
S2144014A011462920014B984708BD00BF2113400034
S2144014B010B4C0F30744C0F30721064B03F570721F
S2144014C01C705970987003339342F9D15DF8044B01
S2144014D0704700BFDC09402010B584B0ADF8060068
S2144014E0ADF80410030A8DF80C30C0B28DF80D002C
S2144014F08DF80E308DF80F00042203A92A200E4CDA
S214401500A047002211461046A0479DF805208DF8BA
S2144015100C209DF804308DF80D308DF80E208DF897
S2144015200F30042203A92B20A04700221146104664
S214401530A04704B010BD00BF211340002DE9F04382
S21440154087B08146032706AE46F8087D5D4D28469F
S2144015505D4B9847002400945C4B3A4631462846FB
S214401560DFF89881C047224639462846584B984768
S21440157031462846574B98470120286068612246E6
S2144015802146554EB047C820544DA84722462146CE
S2144015901120B047C820A84781238DF80A308DF81F
S2144015A00B4010264FF001084B4F254642460DF1A2
S2144015B00A01FB20B8479DF80A3001338DF80A30FF
S2144015C00395039BFE2B05D8039B01330393039B94
S2144015D0FE2BF9D92A462946D320B8470620404B49
S2144015E0984742460DF1090136483E4B98470395C9
S2144015F0039BFE2B05D8039B01330393039BFE2BD3
S214401600F9D99DF80930B3401C4342460DF10B0111
S214401610FB20B8470395039A40F6FE739A4206D8D5
S2144016201A46039B01330393039B9342F9D9083E22
S21440163016F1080FBAD149F288439C4203D00120E4
S21440164007B0BDE8F08306AD482305F8013D01220A
S21440165029463620204EB0476420204CA04704231D
S2144016608DF8173001222946CF20B0476420A04786
S21440167006238DF81730012229463A20B0476420C9
S214401680A047002211461320B0476420A047164BBF
S21440169098476420A0470020144B98476420A047F2
S2144016A0B9F80430B9F8002000210846104CA0478D
S2144016B0D9F808000F4B9847002108460E4B98472C
S2144016C00020BDE700800040B50D4000002D3101F0
S2144016D0891E4000890E400021134000D51340006B
S2144016E0F9194000EF0E40009D144000F1134000F1
S2144016F01D144000B1144000D9144000090E4000AB
S2144017002DE9F04184B003900291019204AA42F878
S214401710103D134601AA02A903A8224CA047BDF8D3
S2144017200C00BDF80810009B01335B1A019A013289
S214401730121A9BB292B21C4CA0471C4B9847039976
S214401740019D691A009D0135029BED1A01FB055566
S214401750174BA3FB05231B0A63B15C1EDFF85880BA
S2144017604FF47077134E39464046B047013CB4F1CB
S214401770FF3FF8D10E49A1FB0531090A01EB810173
S214401780A5EB811101EB41010B480A4B98474FF4FA
S214401790F0734FF4A07200210846034CA04704B0F3
S2144017A0BDE8F0818D1240001D144000E512400057
S2144017B0CDCCCCCC95134000DC09402010B584B08D
S2144017C003900291013A10440190013B194404AB46
S2144017D043F8101D01AA02A903A8134CA047BDF860
S2144017E00C00BDF80810009B01335B1A019A0132C9
S2144017F0121A9BB292B20D4CA0470399019A511A05
S214401800029A009B9A1A02FB01F202EB42020699E8
S2144018102C20074B98474FF4F0734FF4A0720021EA
S2144018200846A04704B010BD8D1240001D1440006D
S21440183021134000016370474264B1F1C05F3AD063
S21440184013D8B1F1006F25D0B1F1805F0AD1036F94
S21440185013430367436F416F0B4023EA020343671A
S214401860426070470029FBD17047B1F1205F21D01C
S21440187009D8B1F1005FF3D1036F13430367436F99
S21440188013434367ECE7B1F1405F13D0B1F1605FBB
S21440189010D0E5E710B4016F046FD34321401C46D7
S2144018A019400167436F416F0B40234043674260D6
S2144018B05DF8044B7047036F016F0B4023EA020349
S2144018C00367436F13434367CAE7416412F0010F4F
S2144018D00DD1016612F00A0F0BD0016212F0020F12
S2144018E009D112F0080F08D0C0F8841005E0416610
S2144018F0F0E74162F2E7C0F880104161016070474E
S21440190010B4019C41644CB901664BB101654AB9BB
S2144019104163016101605DF8044B70474166F4E73E
S2144019204165F4E70163F4E770B582B005461646B4
S2144019301C46B1F1005F14D00AD9B1F1405F24D003
S214401940B1F1605F21D0B1F1205F17D000201AE0DE
S214401950B1F1805F05D0B1F1C05F02D0B1F1006F48
S214401960F4D132462846114B984714F0010F02D165
S2144019702E66012007E06E66012004E01A463146D6
S2144019800B4B9847012002B070BD04F00103009352
S214401990C4F38003B1F1605F14BF002201223146D8
S2144019A02846044CA0470120EDE700BF3918400008
S2144019B0CB1840000119400012F0100F12D0C0F8AA
S2144019C0B01012F0200F07D0C0F8D41012F0400F1D
S2144019D005D0C0F8C0107047C0F8D010F6E7C0F881
S2144019E0C4107047C0F8B410704701647047C06CAC
S2144019F07047806C70470000054B03EB50135B024A
S214401A0000F01F00012202FA00F01863704700BF82
S214401A1007072000054B03EB50135B0200F01F0046
S214401A20012202FA00F05863704700BF0707200003
S214401A3070B582B00D46464C04EB5014640201F07B
S214401A40F043B3F1005F59D00AD8B3F1805F2FD08E
S214401A50B3F1C05F3FD0B3F1006F16D0002012E064
S214401A60B3F1405F5DD0B3F1605F5AD0B3F1205F11
S214401A70F4D100F01F0101262A4606FA01F120465D
S214401A80344B9847304602B070BD00F01F00012628
S214401A90864032464FF0006120462F4B984715F05F
S214401AA0010F02D126660120EDE766660120EAE7CF
S214401AB000F01F000126864032464FF080512046F7
S214401AC0254B984715F0010F02D126660120DAE72C
S214401AD066660120D7E700F01F00012686403246A2
S214401AE04FF0C05120461C4B984715F0010F02D1CD
S214401AF026660120C7E766660120C4E700F01F009F
S214401B000126864032464FF000512046124B9847F9
S214401B1015F0010F02D126660120B4E76666012063
S214401B20B1E705F0605200F01F01012605EA060302
S214401B300093C5F38003B2F1605F14BF0022012218
S214401B4006FA01F12046054CA04730469BE700BF09
S214401B5007072000CB184000391840000119400004
S214401B602DE9F041044688460E4B984705462046E8
S214401B700D4B9847054013D00C4C04F1600603E02B
S214401B80B4420DD010345DB120684045F8D161684C
S214401B902942F5D0E3689847636825EA0305EFE7EE
S214401BA0BDE8F081EF194000F31940009C0D40203D
S214401BB0F8B5184C2668062E2AD84FF0000C644616
S214401BC0154F04E00134E4B2A446A64209D3A64623
S214401BD025017D598D42F5D107EB04156D68954278
S214401BE0F0D10D4D4FEA0E1E05EB0E0445F80E10D3
S214401BF06260A3600699E1600136664505D01146ED
S214401C001A46064B98470020F8BD02490E60F6E794
S214401C100120F8BD0C0E40209C0D4020B919400014
S214401C2008B50A210148024B984708BD000E0E40F1
S214401C30611B400008B50B210148024B984708BD80
S214401C4000100E40611B400008B50C210148024BB5
S214401C50984708BD00120E40611B400008B5102191
S214401C600148024B984708BD00140E40611B4000D7
S214401C7008B511210148024B984708BD00160E4092
S214401C80611B4000032811D0042812D002280CBF44
S214401C904FF480710021084A136B23F440730B43C2
S214401CA01363936E13F0080FFBD070474FF44071E8
S214401CB0F1E74FF40071EEE700060E40174A136B4B
S214401CC023F0700318431063936E13F0080F0AD185
S214401CD04FF4805311498A6E12F0080F03D1013B2E
S214401CE0F9D1012070470D4A136B23F0030343F0EC
S214401CF002031363936E13F0080F0AD14FF4805318
S214401D0006498A6E12F0080F05D1013BF9D1012031
S214401D107047002070470020704700BF00060E4006
S214401D20A0B90E48036A090289B20D4A1A400D4B03
S214401D301343194301620246936E13F0010FFBD022
S214401D40064A116A084B0B431362704703490B6AF5
S214401D50064A1A40064B13430B62704700060E4075
S214401D60FCFFC8FF0100370000003701FCFFC8FE3B
S214401D7002003701024B986E00F48030704700BF77
S214401D8000060E404FF00052014B9A62704700BF6B
S214401D9000060E40024B986E00F00200704700BFEF
S214401DA000060E4000F07F00054BC3F80C01D3F848
S214401DB00C2142F01022C3F80C210020704700BFCF
S214401DC000060E4008B5074B984203D0064B984293
S214401DD004D008BD1520054B984708BD2A20034B64
S214401DE09847F6E70080004000800540A51D40006B
S214401DF0436823F4702343604368090401F4702168
S214401E00194341607047436823F07F43436043680B
S214401E1043EA01614160704730B443F6992405694E
S214401E2015F0020F03D1013CF9D101200CE04468C3
S214401E3014F0020F06D0120402F4702211430BB1C4
S214401E4041F08071C160002030BC704732B900EB71
S214401E508100036B23F001030363704700EB8100AE
S214401E60036B43F001030363704732B900EB810014
S214401E70036B23F002030363704700EB8100036BA0
S214401E8043F0020303637047042A03D06AB1082A6A
S214401E9016D0704700EB8100036B23F00803036302
S214401EA0036B43F004030363704700EB8100036B4E
S214401EB023F008030363036B23F0040303637047B4
S214401EC000EB8100036B43F008030363E1E700EB9C
S214401ED081010B6B23F0F0030B630B6B1A430A6311
S214401EE07047431E1944B1FBF0F0431EFE2B94BFCF
S214401EF000B24FF0FF3070477AB110B4144600EB92
S214401F0081010B6B23F47F430B630A6B42EA042286
S214401F100A6300205DF8044B70474FF0FF3070476F
S214401F2010B400EB8101086B80B208630C6B44EA86
S214401F30036343EA02430B635DF8044B70470000BB
S214401F40284B99424BD8A3F57A5399422DD910B4D1
S214401F50254CA4FB0234A40B033C244B0B449B00AF
S214401F60B2FBF3F2033AFF2C1DD90021013164087D
S214401F70FF2C01D90629F9D9FF2A07D9062905D801
S214401F8001315208FF2A01D90629F9D913029BB21A
S214401F90090401F4E0210B43E4B22343036100202B
S214401FA05DF8044B70470021E6E74900B2FBF1F2CA
S214401FB0033AFF2A11D9002301335208FF2A01D9D8
S214401FC0062BF9D9110289B21B0403F4E0230B4314
S214401FD0D2B21A430261002070470023F2E7012084
S214401FE0704700BF801A0600F11976050012FD3FC3
S214401FF008B54FF0FF328262026A80220260026BAE
S2144020000822026020220260042202600A684968B0
S214402010034B9847012814BF0020012008BD00BF8D
S214402020411F4000CA68002A4CD070B48C68002615
S21440203046604B681B0203F4407343F480530D7CA8
S2144020402D0405F4FE052B434360C6604D685DB124
S2144020500B78012D02DD4E7846EA0323022D04DD7F
S214402060897841EA032300E00023C360012303602C
S214402070022512E0056013F0020F1BD0036B23709D
S214402080036A13F0010FFBD0036A002070BC704750
S214402090036B04F8013B013AF2D0036A13F4807FE5
S2144020A014D147F23051012AE4D013F0020FEFD199
S2144020B0002AE5D0036A13F4807F05D10139F2D1B6
S2144020C00920E3E7012070470520DFE70520DDE72C
S2144020D0CB68002B43D070B48C68002646600A7CE0
S2144020E0120402F4FE024D682D0205F440752A43A0
S2144020F04260C6604D685DB10A78012D02DD4E78BB
S21440210046EA0222022D04DD897841EA022200E0F6
S2144021100022C26004E014F8012B4263013B0FD05A
S214402120026A12F4807F1ED112F0040FF3D1026AC5
S21440213012F4807F15D112F0040FECD1002BF6D1AB
S214402140036A13F4807F11D113F0040FF8D00223F2
S2144021500360036A13F0010FFBD0002004E0012067
S2144021607047052000E0052070BC70470520FBE75F
S214402170436913F0020F02D0C1610020704701206E
S2144021807047436913F0010F03D083690B7000203A
S21440219070470120704710B40B01934214D9C90010
S2144021A04B0803EBC202B2FBF1F2D3085C1E4FF6BB
S2144021B0FE718C4201D9012017E0416841F40021AC
S2144021C041600CE0012010E0590801EBC202B2FB6E
S2144021D0F3F2D3085C1E4FF6FE718C42F2D812041E
S2144021E002F4E0221A43026200205DF8044B704776
S2144021F0084BC0F8E4300023436043628362882380
S2144022000360242303604FF4807303604FF400237D
S214402210036070470041535570B505460C46164658
S2144022200F4B984700220F4B1A60A4B132462168E4
S21440223028460D4B9847024678B96368A1680B4319
S21440224021690B43E1680B4306490B6069680B4301
S2144022506B60104670BD0122FBE70122F9E700BF24
S214402260F1214000100E402097214000402303609B
S2144022707047102303607047436913F0020F04D081
S214402280C1F30801C16100207047012070474369CF
S21440229013F0010F05D08369C3F308030B600020D9
S2144022A0704701207047FEE700B583B0254B264AAD
S2144022B09A4210D0254B234A9A420CD2013B9B1A95
S2144022C023F00303043313441F4951F8040B42F828
S2144022D0040B9A42F9D11E4B1E4A9A420AD2013B3F
S2144022E09B1A23F0030304331344002142F8041BD3
S2144022F09342FBD1184A194B23F07F039360EFF3C8
S2144023001083B3FA83F35B09019372B6BFF35F8F12
S2144023100022134B1A700199124A136843F4700353
S2144023201360BFF34F8FBFF36F8F29B101220C4B61
S2144023301A70BFF35F8F62B60B4B98470B4B9847AC
S214402340FEE700BF000040204C624500C009402028
S21440235008C94020C009402000ED00E000004000D1
S2144023600A00402088ED00E08D4F4000FD4D4000C3
S2144023703B4B1B6B03F00303012B1DD083B1022B99
S21440238036D0374B1B6B03F07003702B5FD0344B4B
S2144023901A6B3449C2F302120B68D3400B60704785
S2144023A0314B5B6913F0800F14BF4FF400424FF47B
S2144023B0FA422C4B1A60E4E7294B1B6A13F0807FE5
S2144023C003D02A4A274B1A60DBE7294A254B1A6076
S2144023D0234B1B6A03F07003102B05D0202BD0D163
S2144023E0224A204B1A60CCE7224A1E4B1A60C8E7A6
S2144023F01B4B1B6A13F0807F16D01C4A194B1A6081
S214402400174B1B6B03F00303022BBAD1144A916A95
S214402410926A1448C1F30A41036801FB0333D2B2FF
S214402420B3FBF2F30360ACE7114A0E4B1A600C4B59
S2144024301B6A03F07003102B05D0202BE0D10B4A0B
S214402440084B1A60DCE70B4A064B1A60D8E7054A89
S21440245013680949A1FB03135B081360704700BF6C
S21440246000060E400C00402010180E40001BB7001F
S21440247000093D0000127A00ABAAAAAA164B984261
S21440248013D9164B984215D9154B984216D9154B69
S214402490984217D9144B984218D9144B984294BF77
S2144024A0134A144A144B1A6070474FF08062124B1E
S2144024B01A607047114A104B1A607047104A0E4B0C
S2144024C01A6070470F4A0C4B1A6070474FF0042250
S2144024D0094B1A60704700BFBFF35E017FE7BD023D
S2144024E03FDB1C04FFCE7B05BFC2DA067FB6390849
S2144024F00005000400060004000C0E400001000425
S21440250000020004000300040A4B1B6853B1094B49
S2144025101B681A180849914208DB1046054A1060A5
S21440252018467047054A034B1A60F0E74FF0FF30F5
S214402530704700BF140E4020FCFF452008EB4020AB
S2144025404FF0FF3070474FF400534B600020704709
S214402550012070470020704700F1080343604FF0A9
S214402560FF328260C360036100230360704700232C
S2144025700361704743684B609A688A609A68516006
S21440258099600861036801330360704730B40D6892
S214402590B5F1FF3F02D000F1080202E0026904E014
S2144025A01A4653681C68A542FAD253684B60996035
S2144025B08A605160086103680133036030BC70472D
S2144025C003694268816891608268416851605A68D0
S2144025D0904205D0002202611868013818607047A2
S2144025E082685A60F6E700000D4B1B68B3F1FF3F68
S2144025F00AD04FF0800372B683F31188BFF36F8F13
S214402600BFF34F8F62B6FEE74FF0800372B683F398
S2144026101188BFF36F8FBFF34F8F62B6FEE700BFE0
S2144026201000402006480068006880F3088862B6BC
S21440263061B6BFF34F8FBFF36F8F00DF00BF000060
S21440264008ED00E0DFF80C00016841F4700101601D
S2144026507047000088ED00E04FF0807340F8043C7F
S21440266040F8081C054B40F80C3C40F8202C6FF016
S214402670020340F8243C4438704700BFE925400038
S214402680064B19680868B0E8F04F80F30988BFF336
S2144026906F8F4FF0000080F31188704728C64020A7
S2144026A0704700BF4FF0800372B683F31188BFF3C4
S2144026B06F8FBFF34F8F62B60B4A136801331360B8
S2144026C0012B0FD1094B1B6813F0FF0F0AD04FF0B8
S2144026D0800372B683F31188BFF36F8FBFF34F8FBB
S2144026E062B6FEE7704700BF1000402004ED00E0F1
S2144026F00A4B1B6853B94FF0800372B683F31188B8
S214402700BFF36F8FBFF34F8F62B6FEE7013B034ABE
S21440271013600BB983F31188704700BF1000402048
S214402720EFF30980BFF36F8F154B1A681EF0100F3A
S21440273008BF20ED108A20E9F04F10604DF8043DA8
S2144027404FF0800072B680F31188BFF34F8FBFF30F
S2144027506F8F62B601F01AF94FF0000080F31188CF
S21440276008BC19680868B0E8F04F1EF0100F08BFA4
S214402770B0EC108A80F30988BFF36F8F704700BFB4
S21440278028C64020704700BF08B5EFF311834FF0CE
S214402790800272B682F31188BFF36F8FBFF34F8FFC
S2144027A062B6054B984718B14FF08052034B1A60FB
S2144027B0002383F3118808BDF935400004ED00E09E
S2144027C0034A044B1A600722043B1A60704700BF56
S2144027D07FA9030014E000E000B583B0254B1A78CB
S2144027E0D2B20192FF221A701B78DBB28DF803300A
S2144027F09DF8033003F080031F4A137007221F4BD7
S2144028001A609DF8033013F0800F10D0062200E0C7
S2144028100A469DF803305B00DBB28DF803309DF826
S2144028200330511E13F0800FF2D1144B1A60134A36
S21440283013681B0203F4E0631360019BDBB20D4A8E
S21440284013700F4B1A6842F460021A601A6842F01E
S21440285060421A600B4B984700220B4B1A600B4B9A
S21440286098470B4A136843F040431360094B984718
S214402870094B984700E400E0180E40201C0E40200C
S21440288020ED00E0C12740001000402045264000D3
S21440289034EF00E025264000E9254000EFF30583AD
S2144028A00F2B11D9124A9B5CDBB2124A12789A421D
S2144028B00AD94FF0800372B683F31188BFF36F8F47
S2144028C0BFF34F8F62B6FEE70B4B1B6803F4E06323
S2144028D00A4A126893420AD94FF0800372B683F3CD
S2144028E01188BFF36F8FBFF34F8F62B6FEE7704716
S2144028F0F0E300E0180E40200CED00E01C0E4020F7
S21440290038B5044610F0070F02D020F0070408340C
S214402910114B9847114B1B6893B1114B1B681C44D5
S214402920A34213D24BF2F77294420FD80B4A156863
S2144029301D440B4B1C600B4B98474DB1284638BD89
S214402940094B23F00703054A1360E6E7054B984713
S214402950064B98470025F1E7DD354000200E402025
S21440296024C64020453740002C0E4020B34540004A
S21440297050B14FF0800372B683F31188BFF36F8F68
S214402980BFF34F8F62B6FEE77047000038B5044687
S2144029901546026C5AB90368002B2ED140681B4B73
S2144029A0984700236360A36B0133A36338BD6DB9BA
S2144029B08068174B9847A368226C1344A3606268EC
S2144029C093421CD32368A3600020ECE7C068104BFA
S2144029D09847236C5B42E2681A44E26021688A4268
S2144029E002D262681344E360022D0AD1A36B53B14E
S2144029F0A36B013BA3630020D5E70020D3E700206C
S214402A00D1E70020CFE70020CDE700BF8D3D400056
S214402A107555400030B583B00190446D74B1A26BDB
S214402A20E36B9A4215D34FF0800372B683F3118856
S214402A30BFF36F8FBFF34F8F62B6FEE74FF0800352
S214402A4072B683F31188BFF36F8FBFF34F8F62B6B2
S214402A50FEE7A26B934203D80025284603B030BD5C
S214402A600A4601A920460B4B98470546A36CB3F18E
S214402A70FF3F0AD1636A002BEFD004F12400064BD7
S214402A809847002818BF0125E7E7A36C0133A364E5
S214402A90E3E700BF8D294000613B4000026C72B105
S214402AA010B50346C4681444C4604068844201D3E9
S214402AB01868D8600846D968014B984710BD7047DB
S214402AC075554000F8B50446224B9847A36C002B3A
S214402AD01BDD214D214F224E0BE0636AABB104F162
S214402AE02400B04778B9A36C013BA364A36C002BC9
S214402AF00BDD636D002BF0D000212046A84701284F
S214402B00F1D1B847EFE7B847EDE74FF0FF33A3649E
S214402B10144B98470F4B9847636C002B14DD236982
S214402B2093B104F110060E4D0C4F07E0636C013B69
S214402B306364636C002B07DD23692BB13046A847DE
S214402B400028F3D0B847F1E74FF0FF336364054BF6
S214402B509847F8BDA5264000152A4000BD3C4000D9
S214402B60613B4000F126400038B508B304460D46A8
S214402B701D4B98472268216CE36B03FB01F3D0188A
S214402B8060600020A063A2605B1A1344E3604FF0CD
S214402B90FF336364A364FDB923692BB104F11000CD
S214402BA0124B984701280ED0114B9847012038BD4C
S214402BB04FF0800372B683F31188BFF36F8FBFF375
S214402BC04F8F62B6FEE74FF080520A4B1A60BFF353
S214402BD04F8FBFF36F8FE7E704F11000064DA8470D
S214402BE004F12400A847DFE7A5264000613B4000EB
S214402BF0F126400004ED00E059254000F8B550B9F4
S214402C004FF0800372B683F31188BFF36F8FBFF324
S214402C104F8F62B6FEE7064617460D4689B101FB62
S214402C2000F05930124B98470446E8B94FF08003FD
S214402C3072B683F31188BFF36F8FBFF34F8F62B6C0
S214402C40FEE758200A4B984704460028EED02060FE
S214402C50E663256401212046064B984784F8507069
S214402C60002363652046F8BD00F158030360EFE794
S214402C7001294000692B40002DE9F04F85B00192B4
S214402C80B8B1044601B3022B2CD01D468846664B8D
S214402C909847002834D1019B002B38D04FF0800352
S214402CA072B683F31188BFF36F8FBFF34F8F62B650
S214402CB0FEE74FF0800372B683F31188BFF36F8F41
S214402CC0BFF34F8F62B6FEE7026C002ADBD04FF0B0
S214402CD0800372B683F31188BFF36F8FBFF34F8FB5
S214402CE062B6FEE7E26B012ACFD04FF0800372B6A1
S214402CF083F31188BFF36F8FBFF34F8F62B6FEE743
S214402D0000274A4EDFF850A1DFF82C9142E000271A
S214402D10F7E72A4641462046454B9847636D9BB1A8
S214402D2029462046434B9847012807D14FF080520A
S214402D30414B1A60BFF34F8FBFF36F8F3F4B98479F
S214402D40012005B0BDE8F08F636A73B104F124003A
S214402D503B4B98470128F1D14FF08052364B1A60D2
S214402D60BFF34F8FBFF36F8FE8E70028E6D04FF0F2
S214402D708052314B1A60BFF34F8FBFF36F8FDDE742
S214402D802E4B98470020DCE720462E4B98472E4B8C
S214402D9098470127B047A26BE36B9A42B9D3022DFE
S214402DA0B7D0019B002BEBD00FB902A8D047234BDE
S214402DB09847264B9847B047636CB3F1FF3F01D125
S214402DC000236364A36CB3F1FF3F01D10023A364E7
S214402DD01A4B984701A902A81D4B9847E0B9B0473F
S214402DE0D4F838B0E76B154B9847BB45CCD1019922
S214402DF004F11000174B98472046124B9847124B49
S214402E0098470028C5D14FF08053C9F80030BFF32B
S214402E104F8FBFF36F8FBCE720460A4B98470A4B4D
S214402E20984700208DE700BFC93C4000A5264000DB
S214402E308D294000152A400004ED00E0F1264000B0
S214402E40613B4000C52A400045374000DD35400024
S214402E50293C40005D3A4000F93B4000002836D00F
S214402E602DE9F041044600293CD0022B48D01E46AE
S214402E7015468846354B9847EFF311874FF0800349
S214402E8072B683F31188BFF36F8FBFF34F8F62B66E
S214402E90A26BE36B9A4201D3022E4FD13246414693
S214402EA020462B4B9847A36CB3F1FF3F41D1636D4F
S214402EB0002B33D031462046264B9847002D3FD036
S214402EC001283DD1286087F31188BDE8F0814FF096
S214402ED0800372B683F31188BFF36F8FBFF34F8FB3
S214402EE062B6FEE7006C0028BFD04FF0800372B693
S214402EF083F31188BFF36F8FBFF34F8F62B6FEE741
S214402F00E06B0128B3D04FF0800372B683F311888C
S214402F10BFF36F8FBFF34F8F62B6FEE7636A8BB126
S214402F2004F124000C4B984775B168B10120286025
S214402F30C9E7A36C0133A3640120C4E70020C2E7BD
S214402F400120C0E70120BEE70120BCE79D284000E5
S214402F508D294000152A4000613B400070B170B595
S214402F600446036CABB14FF0800372B683F311880E
S214402F70BFF36F8FBFF34F8F62B6FEE74FF080030D
S214402F8072B683F31188BFF36F8FBFF34F8F62B66D
S214402F90FEE7036833B30D46254B9847EFF311869B
S214402FA04FF0800372B683F31188BFF36F8FBFF381
S214402FB04F8F62B6A26BE36B9A4231D2A36B01335A
S214402FC0A363A36CB3F1FF3F25D1636DC3B100216A
S214402FD02046184B98472DB3012823D1286086F306
S214402FE0118870BD4368002BD5D04FF0800372B671
S214402FF083F31188BFF36F8FBFF34F8F62B6FEE740
S214403000636A8BB104F124000B4B984775B168B1E5
S21440301001202860E3E7A36C0133A3640120DEE7C8
S2144030200020DCE70120DAE70120D8E70120D6E7D8
S2144030309D284000152A4000613B40002DE9F0479E
S21440304084B0019298B10446E1B198460F46614B70
S214403050984728BB019B53B34FF0800372B683F367
S2144030601188BFF36F8FBFF34F8F62B6FEE74FF006
S214403070800372B683F31188BFF36F8FBFF34F8F11
S21440308062B6FEE7026C002ADFD04FF0800372B6CD
S21440309083F31188BFF36F8FBFF34F8F62B6FEE79F
S2144030A000264D4DDFF860A1DFF83C914BE000264E
S2144030B0F7E7E56839462046484B9847B8F1000F91
S2144030C01DD1A36B013BA363236813B9444B9847B8
S2144030D0606023696BB104F11000424B98470128A9
S2144030E007D14FF08052404B1A60BFF34F8FBFF36B
S2144030F06F8F3E4B9847012004B0BDE8F087E560EF
S214403100636A002BF5D004F12400364B984700281C
S214403110EFD04FF08052344B1A60BFF34F8FBFF35F
S2144031206F8FE6E7314B98470020E5E7A847606891
S2144031302F4B98472D4B984730E020462D4B9847CD
S2144031402D4B98470126A847A36B002BB1D1019B76
S214403150002BE7D00EB902A8D047244B9847274B00
S2144031609847A847636CB3F1FF3F01D100236364DF
S214403170A36CB3F1FF3F01D10023A3641B4B9847D8
S21440318001A902A81E4B9847E8B9A847A66B174B5B
S2144031909847002ED1D12368002BC7D0019904F15F
S2144031A02400184B98472046124B9847124B984796
S2144031B00028C7D14FF08053C9F80030BFF34F8F77
S2144031C0BFF36F8FBEE720460A4B98470A4B984797
S2144031D0002091E7C93C4000A52640009D2A4000BB
S2144031E0493E4000613B400004ED00E0F1264000CF
S2144031F0E93C4000C52A400045374000DD354000E8
S214403200293C40005D3A4000F93B400010B40B4B6F
S2144032101B6853B10123094C54F8332032B10133B3
S214403220082BF9D15DF8044B70470023034A42F857
S214403230331002EBC3035860F4E700BF28C84020B1
S21440324070B504460D4616460F4B9847636CB3F16F
S214403250FF3F0BD0A36CB3F1FF3F0AD00B4B984710
S214403260A36B4BB120460A4B984770BD002363645E
S214403270F0E70023A364F1E73246294604F1240030
S214403280044B9847EEE700BFA5264000F1264000D5
S214403290C52A4000E13A4000084B1B681B683BB11A
S2144032A0064B1B68DB68DB685A68054B1A6070473C
S2144032B04FF0FF32024B1A60704700BF2CC64020CA
S2144032C0D8C6402010B50F4B1B6858600E4B1B6885
S2144032D098420ED304460D4B18680A4B19680431C1
S2144032E00B4B98470B4B1B689C4201D2094B1C600A
S2144032F010BD094B1868034B19680431044B9847B6
S21440330010BD00BF28C6402020C740202CC6402005
S2144033108D254000D8C6402030C640202DE9F04FCD
S21440332083B00C9DDDF834A00E9E60B1042D15D9F7
S2144033304FF0800372B683F31188BFF36F8FBFF3ED
S2144033404F8F62B6FEE74FF0800372B683F3118864
S214403350BFF36F8FBFF34F8F62B6FEE7019098467C
S21440336091460F4636B99000624B9847064600286D
S21440337000F09E8058205F4B98470446002800F097
S214403380948006634FEA8902A52130465A4B9847F7
S2144033906FF040464E44236B03EB860323F007064C
S2144033A03B7884F834303B78002B40F0848000270C
S2144033B084F83D70E562A564E76404F10409484674
S2144033C0DFF884B1D84704F11800D8472461C5F126
S2144033D00503A3616462276584F8547042460199E8
S2144033E03046464B98472060BAF1000F01D0CAF8E5
S2144033F00040434B9847434A136801331360424B9F
S2144034001B68002B66D1404B1C601368012B21D1F2
S2144034103E4F38463E4EB04707F11400B04707F1DE
S2144034202800B04707F13C00B04707F15000B047CE
S214403430DFF818814046B047364F3846B0473648E2
S214403440B0473648B0473648B047364BC3F800809A
S214403450354B1F60354A1368013313602364E06AB6
S214403460334A1168012383400B43136000EB80000E
S2144034704946264B03EB80002E4B98472E4B9847E9
S2144034802E4B1B68002B31D01F4B1B68DB6A9D42BE
S2144034902ED94FF080522A4B1A60BFF34F8FBFF39E
S2144034A06F8F012003B0BDE8F08F3046254B98471C
S2144034B04FF0FF30F6E73B4604F1340209375978BF
S2144034C002F8011F13F8011F00293FF470AFBB42FA
S2144034D0F5D16CE7194B1B68002BBBD10A4B1B6818
S2144034E0DB6A9D42B6D3084B1C60B3E70120D9E7A0
S2144034F00120D7E701294000A95640005926400040
S214403500A526400098C6402028C6402034C6402005
S21440351059254000C4C64020E0C640200CC7402085
S214403520F8C640202CC6402030C64020A4C64020C6
S214403530ACC6402075254000F1264000F4C6402029
S21440354004ED00E0712940006F254000B0C64020E1
S21440355010B584B000230393029301930093822214
S21440356016491748174CA04701280BD020BB4FF0F0
S214403570800372B683F31188BFF36F8FBFF34F8F0C
S21440358062B6FEE7104B98470128EFD14FF0800314
S21440359072B683F31188BFF36F8FBFF34F8F62B657
S2144035A04FF0FF32094B1A600122094B1A60002285
S2144035B0084B1A60084B984704B010BDF4B340005F
S2144035C0F53840001D334000353F4000D8C6402007
S2144035D0F4C6402020C74020D9274000024A13683E
S2144035E001331360704700BFA0C64020014B1868E7
S2144035F0704700BF20C740202DE9F047424B1B686C
S214403600002B78D1414B1A6801321A601E68D6B931
S2144036103F4B1B681B6853B14FF0800372B683F371
S2144036201188BFF36F8FBFF34F8F62B6FEE7384AFD
S2144036301168384B186810601960374A13680133B0
S2144036401360364B9847364B1B689E4218D2002470
S214403650344B1B68DB6A03EB8303334A52F8233050
S214403660022B28BF0124314B1B680BB9304B9847BF
S214403670304B1B68002B0CBF20460120BDE8F0876E
S2144036800024DFF88C90DFF8B8802B4F1FE04FF017
S214403690FF32234B1A60DBE7214A1360D8E705F177
S2144036A01800C047E86A3A680123834013433B60EA
S2144036B000EB800051461C4B03EB80001F4B9847A5
S2144036C0184B1B68EA6ADB6A9A4228BF0124D9F87D
S2144036D000301B68002BDAD0D9F80030DB68DD6894
S2144036E06B689E42D8D305F1040A5046C047AB6A81
S2144036F0002BD4D1D6E70D4A1368013313600C4B28
S21440370098470024B4E700BFA0C6402020C740200A
S2144037102CC6402030C64020DCC6402099324000AF
S214403720D8C6402028C6402034C640209CC64020EC
S214403730B145400024C74020ACC640207525400017
S214403740C12540002DE9F843384B1B6853B94FF06C
S214403750800372B683F31188BFF36F8FBFF34F8F2A
S21440376062B6FEE7324B9847304B1A68013A1A6009
S2144037701B68002B55D12F4B1B68002B32D10024E1
S2144037802D4B98472046BDE8F883FB68DC6804F17B
S2144037901800B04704F104084046B047E06A2A687B
S2144037A00123834013432B6000EB8000414609EB26
S2144037B08000224B9847224B1B68E26ADB6A9A429B
S2144037C00CD23B68002BE0D11E4B1B68DBB11D4B77
S2144037D01B68C3B11C4E1D4D1A4C0EE001221B4BFC
S2144037E01A60EEE71A4F1B4E1B4DDFF87490E8E761
S2144037F02368013B236023682BB1B0470028F7D0ED
S21440380001232B60F4E7114B1B68012B0BD14FF0C3
S2144038108052124B1A60BFF34F8FBFF36F8F012455
S214403820AEE70024ACE70024AAE700BFA0C64020CD
S214403830A526400098C64020F12640007525400049
S21440384028C640209CC64020F935400024C740206A
S214403850E0C64020C1254000ACC6402004ED00E054
S21440386034C6402010B5002829D00446184B1B68A3
S21440387053B14FF0800372B683F31188BFF36F8F56
S214403880BFF34F8F62B6FEE7124B9847124B1B684A
S2144038901C44124B18680430114B984748B90F4BDC
S2144038A01A6810490B68D06A0122824023EA020354
S2144038B00B6020460C4B98470C4B984738B94FF056
S2144038C080520B4B1A60BFF34F8FBFF36F8F10BD04
S2144038D0A0C64020DD35400020C7402028C64020F6
S2144038E0C1254000ACC64020C532400045374000A8
S2144038F004ED00E080B5DFF88880194EDFF884904C
S2144039002AE0184B1B68012B1ED82B68002BF8D0DA
S214403910C0473468B847002CF7D0134B9847F36835
S214403920DC68201D114B9847114A1368013B136011
S2144039302B68013B2B600F4B9847206BDFF848A065
S214403940D0472046D047E0E74FF08053C9F80030D4
S214403950BFF34F8FBFF36F8F074D084FD5E700BFBC
S2144039600CC7402034C64020A5264000C125400054
S21440397098C64020F1264000A8C640204537400063
S214403980DD35400004ED00E0712940002D4B1B68FA
S214403990002B2CD110B500222B4B1A602B4B1B68EA
S2144039A01B6B1A68B2F1A53F03D15A68B2F1A53F26
S2144039B021D0264B186819683431254B9847254B3B
S2144039C01B68B3FA83F3DBB2C3F11F0303EB830137
S2144039D0214A52F82120BAB94FF0800372B683F3D9
S2144039E01188BFF36F8FBFF34F8F62B6FEE7012299
S2144039F0154B1A6070479A68B2F1A53FD9D1DB687B
S214403A00B3F1A53FD5D1DAE7134A9900C81802EBBF
S214403A108000446864684460194402460832944210
S214403A2009D003EB83030C4A02EB83035B68DA6836
S214403A30064B1A6010BD6068074A02EB8102506070
S214403A40EFE700BFA0C6402024C7402028C640203D
S214403A5099454000ACC6402034C6402038B5E0B159
S214403A600C46174D29681831164B9847286804307D
S214403A70154B984740B92A6814490B68D06A01220A
S214403A80824023EA02030B60B4F1FF3F10D0104B94
S214403A90186820440F4B984738BD4FF0800372B6E5
S214403AA083F31188BFF36F8FBFF34F8F62B6FEE785
S214403AB0034B196804310848084B984738BD00BF87
S214403AC028C640208D254000C1254000ACC6402079
S214403AD020C74020C5324000F8C64020752540002B
S214403AE0E8B170B515460C46164E31681831164B7F
S214403AF0984730680430154B984740B932681449A7
S214403B000B68D06A0122824023EA02030B60012D33
S214403B1010D0104B186820440F4B984770BD4FF09C
S214403B20800372B683F31188BFF36F8FBFF34F8F56
S214403B3062B6FEE7034B196804310848024B9847C3
S214403B4070BD00BF28C6402075254000C1254000F6
S214403B50ACC6402020C74020C5324000F8C64020B2
S214403B6038B5C368DC6824B304F1180528461A4BF8
S214403B7098471A4B1B683BBB251D2846164B984753
S214403B80E06A174A1168012383400B43136000EB39
S214403B9080002946134B03EB8000134B9847134B8A
S214403BA01B68E26ADB6A9A4213D90120104B186000
S214403BB038BD4FF0800372B683F31188BFF36F8F22
S214403BC0BFF34F8F62B6FEE729460A48064B984732
S214403BD0E5E7002038BD00BFC1254000A0C6402014
S214403BE0ACC6402034C640207525400028C640203C
S214403BF024C74020E0C6402030B1094A126802601F
S214403C00084A1268426070474FF0800372B683F3EA
S214403C101188BFF36F8FBFF34F8F62B6FEE700BFCA
S214403C20DCC6402020C7402038B5C0B1044609B3A2
S214403C300D461D4B98471D4B1A682B68B3F1FF3F46
S214403C402ED01B4909682068884202D061688A42A3
S214403C5028D26168501A834217D801241CE04FF0DE
S214403C60800372B683F31188BFF36F8FBFF34F8F15
S214403C7062B6FEE74FF0800372B683F31188BFF357
S214403C806F8FBFF34F8F62B6FEE79B1A0B442B60D5
S214403C902046084B98470024074B9847204638BD97
S214403CA00024F9E70124F7E7A526400020C7402076
S214403CB0DCC64020F93B4000F12640000122014B83
S214403CC01A60704724C74020054B1B6833B1054B2C
S214403CD01B68002B0CBF0220002070470120704755
S214403CE0F4C64020A0C64020002844D038B504463C
S214403CF0C26A21490968C96A8A4214D28169002980
S214403D0005DB1D490968C96AC1F10501816102EBFD
S214403D1082021A4901EB82026169914204D0164A36
S214403D201268D26AE26238BD251D2846144B984771
S214403D3070B9E36A03EB8301104A52F821203AB97E
S214403D4010480268012101FA03F322EA03030360E4
S214403D50094B1B68D86AE0620A4A1168012383400F
S214403D600B43136000EB80002946044B03EB8000B6
S214403D70054B984738BD704728C6402034C640207B
S214403D80C1254000ACC640207525400000284DD0D7
S214403D9038B50446274A126890420AD04FF080034E
S214403DA072B683F31188BFF36F8FBFF34F8F62B63F
S214403DB0FEE7C26C52B94FF0800372B683F31188A7
S214403DC0BFF36F8FBFF34F8F62B6FEE7013AC26410
S214403DD0C06AA16C88422BD052BB251D2846164B84
S214403DE0984768B9E16A01EB8102144B53F82230D8
S214403DF033B91348036801228A4023EA020303606A
S214403E00A06CE062C0F10503A3610D4A116801246D
S214403E1004FA00F30B43136000EB80002946074B7F
S214403E2003EB8000074B9847204638BD002070477C
S214403E30002038BD28C64020C125400034C640205A
S214403E40ACC6402075254000054B1B6823B1044B8B
S214403E501A68D36C0133D364014B1868704700BFAF
S214403E6028C6402008B54160006191420CD8D21A5D
S214403E7083699A4201D3012008BD011D094B186889
S214403E80094B9847002008BD9A4203D2994201D375
S214403E90012008BD011D054B1868034B98470020BC
S214403EA008BD00BF2CC740208D25400028C74020B5
S214403EB070B5154B9847154B1B6813B1144B984774
S214403EC070BD144D2846144EB047144C2046B0479B
S214403ED0134B1D60134B1C60002210210520124B13
S214403EE098470A4B186018B11049114B9847E5E7B8
S214403EF04FF0800372B683F31188BFF36F8FBFF322
S214403F004F8F62B6FEE700BFA52640005CC7402044
S214403F10F126400030C740205925400044C7402085
S214403F2028C740202CC74020FD2B4000FCB3400053
S214403F300D32400010B584B00F4B98470F4B1B68AE
S214403F4073B10023039302930193042200924FF42B
S214403F5082720B490B480C4CA04708B104B010BD08
S214403F604FF0800372B683F31188BFF36F8FBFF3B1
S214403F704F8F62B6FEE700BFB13E40005CC74020B0
S214403F8004B44000B54040001D334000D8B130B5C1
S214403F9085B015460446154A106820B31A46009167
S214403FA001950294052919DC114B984702284FF0D9
S214403FB000030CBF089A1A4669460C4800680D4C28
S214403FC0A04705B030BD4FF0800372B683F311882A
S214403FD0BFF36F8FBFF34F8F62B6FEE7002369468D
S214403FE0054CA047EDE70020EBE700BF5CC740204C
S214403FF0C93C4000792C40005D2E40002DE9F0473A
S21440400082B08046244B98470746244B1B6898420C
S2144040101BD30023C8F80030204B1F60384602B040
S214404020BDE8F087002100910B46524620461C4CC6
S214404030A04760B94FF0800372B683F31188BFF390
S2144040406F8FBFF34F8F62B6FEE7164D164E2B6846
S2144040501A68C2B1DB68D3F800A0DC6804F1040932
S2144040604846B047636A20469847E369012BEED13D
S214404070A36953449A45D5D263602461494628686B
S2144040800A4B9847E3E70A4A1068064908601360F7
S2144040900123C8F80030BFE7ED35400058C7402040
S2144040A08D3F400028C74020C12540008D25400058
S2144040B02CC740202DE9F04788B0754E754FDFF885
S2144040C0FC91DFF8FC8133681A68002A00F0CE8045
S2144040D0DB681C68B84704A86F4B98470546049BA6
S2144040E0002B44D1A04212D20022611B6B4B1868B1
S2144040F06B4B98476B4B984700283AD14FF080530C
S214404100C9F80030BFF34F8FBFF36F8F31E0654B78
S21440411098473368DB68D3F80CA00AF10400C04720
S214404120DAF81C30012B04D0DAF824305046984791
S2144041301FE0DAF8181023462A46214450465A4DC6
S214404140A8470128F0D1002100910B462246504650
S214404150564CA0470028E7D14FF0800372B683F351
S2144041601188BFF36F8FBFF34F8F62B6FEE74D4B9C
S21440417098474A4D4E4C06E007990698059B984747
S214404180049B002B09DA00231A4604A92868A04796
S214404190002898D0049B002BEEDBDDF818A0DAF858
S2144041A0143013B10AF10400C04703A83A4B9847AD
S2144041B0049B092BE7D801A252F823F0E5414000C2
S2144041C0E5414000E541400087414000394240001B
S2144041D065424000E5414000E541400087414000DF
S2144041E039424000059CDAF818102346024621441E
S2144041F050462D4CA0470128BCD1DAF82430504612
S2144042009847DAF81C30012BB4D1DAF81820002190
S21440421000910B46059802445046244CA04700287F
S214404220A8D14FF0800372B683F31188BFF36F8F27
S214404230BFF34F8F62B6FEE70599CAF8181031B142
S2144042400346024601445046174CA04792E74FF0BB
S214404250800372B683F31188BFF36F8FBFF34F8F1F
S21440426062B6FEE75046134B984783E7B84704A824
S214404270094B98470546049B002B7FF478AF0E4BBE
S2144042801B681A68B2FA82F2520900242DE700BF72
S21440429028C74020DD354000FD3F40005CC7402039
S2144042A04132400045374000653E40008D3F40006B
S2144042B03D304000712940002CC7402004ED00E00E
S2144042C0C125400000B583B002A9002341F8043D53
S2144042D0034B1868034B984703B05DF804FB00BFD8
S2144042E0BCC840205D2F400000B583B002A9002323
S2144042F041F8043D034B1868034B984703B05DF8FC
S21440430004FB00BFB4C840205D2F400008B5054BF5
S214404310002159669A6E044B1A60044B1868044B89
S214404320984708BD00C00340ACC84020D4C84020D1
S2144043305D2F4000F0B58BB00322002101201D4BBD
S21440434098471D4B18601D4C20461D4B984704A8A7
S2144043501C4B984704A920461B4B9847636823F09C
S2144043608F0363600523194A00212046184DA8474D
S21440437001A8184B984700258DF8055001AA2946F4
S2144043802046154B984765664FF40073E36602A8CF
S214404390124B984702A92046114B98470123636168
S2144043A0274602264FF47A650E4C3E602846A047C4
S2144043B0FBE700BFFD2B4000D4C8402000C00340B0
S2144043C071044000A1024000F10240000D4340004D
S2144043D0F1034000D10240005D024000DB02400095
S2144043E08D02400065384000F0B583B005460C4667
S2144043F0002301932A4B984213D02A4B984218D058
S214404400294B98421DD0294B9D4222D0284B9D4295
S21440441027D0284B9D422ED0274B9D4235D003B007
S214404420F0BD1F46254E21463846B0470028FAD1F3
S214404430E9E71F46214E21463846B0470028FAD1C4
S214404440E4E71F461D4E21463846B0470028FAD1BD
S214404450DFE71F46194E21463846B0470028FAD1B6
S214404460DAE71E46164D01A93046A8470028FAD17D
S214404470019B2370D3E71E46114D01A93046A8473D
S2144044800028FAD1019B2370C9E71E460C4D01A9AE
S2144044903046A8470028FAD1019B2370BFE700BFEB
S2144044A000080E40000A0E40001A0E40001C0E4047
S2144044B0004002400080024000C00240832140008D
S2144044C08F22400070B50C462A4B984213D02A4B98
S2144044D0984219D0294B98421FD0294B984225D054
S2144044E0284B98422BD0284B984231D0274B9842A5
S2144044F037D0002070BD1E46254D21463046A84781
S2144045000028FAD1012070BD1E46214D2146304676
S214404510A8470028FAD1012070BD1E461C4D2146F2
S2144045203046A8470028FAD1012070BD1E46184DD7
S21440453021463046A8470028FAD1012070BD1E46C5
S214404540144D21463046A8470028FAD1012070BDB8
S2144045501E46104D21463046A8470028FAD1012075
S21440456070BD1E460B4D21463046A8470028FAD15E
S214404570012070BD00080E40000A0E40001A0E4092
S214404580001C0E40004002400080024000C0024036
S214404590712140007922400008B50A46014602488B
S2144045A0024B9847FEE700BF605F4500DD4F400086
S2144045B070474FF0800372B683F31188BFF36F8F56
S2144045C0BFF34F8F62B6FEE730B583B00220134B81
S2144045D09847134C00212046124B98470C230093D3
S2144045E00D23052240F2E37120460F4DA8471823BD
S2144045F00F22082120460D4DA8470D4B0422C3F834
S2144046008020C3F88021002183F802131A6002211B
S2144046102046084B984703B030BD00BFA51D40005C
S21440462060180E400B07400011084000810740000C
S21440463000E100E02107400070B582B00C4B98477F
S2144046400C4E00240C4D23464FF4FA722146306837
S214404650A8470128F7D144F25060084B984702A972
S21440466041F8044D064B1868064B9847EBE700BFE9
S214404670C9454000DCC840203D3040006538400019
S214404680A8C840205D2F400070B584B005460E4651
S2144046901F20134B9847134C00212046124B984737
S2144046A0124B019300230293114B039301A920461A
S2144046B0104B984710494FF480730B8101238B723F
S2144046C00B234B6064230B61CE600D6020460B4B82
S2144046D09847294620460A4B984704B070BD00BF0D
S2144046E0A51D40000000024001074000A0860100D2
S2144046F080D1F0082905400068C840206D0540007C
S214404700F706400010B50648064B984740F2DF13C0
S21440471040F23F1200210846034CA04710BD00BFA0
S214404720FCFCFC00B11440000117400030B583B0DB
S214404730124B0093472345221421E720104CA047F4
S2144047400020104B984740F263134FF4A0724FF48A
S214404750AF7100200C4DA8470C4B009351233622D6
S2144047604FF4B4710120A047094B009347235822C9
S2144047704FF4B4717D20A04703B030BD10F544001F
S214404780BD174000B114400001174000DC2C450026
S214404790C0BB40002DE9F04782B01F46DDF82880B8
S2144047A00B780BB30546164618460C46DFF8409085
S2144047B003E014F8013F1846B3B16A7A9A42F8D338
S2144047C02B7AC01A6B6803EBC00ADAF804108B68C1
S2144047D04A680968009139463046C847DAF80430D6
S2144047E05B6843441E44E4E702B0BDE8F08700BF80
S2144047F0BD1740002DE9F04190B0134B9847134B3E
S214404800134A14491448154CA047104F104DDFF872
S2144048104880104C3B462A46214640460F4EB047FD
S2144048202B6822680E4902A80E4CA047012300932D
S2144048301423052202A90C480C4CA0474EF66020D3
S2144048400B4B9847E5E700BFC9454000A4C8402049
S214404850B0C84020B8C8402060180E402507400029
S214404860585F4500215940006CB4400095474000D1
S214404870653840002DE9F04784B0054689469046A5
S2144048804FF0000A5446154F154E08E00134E4B286
S2144048904FF0010A2846B047022C1BD8D0B101A9D8
S2144048A02846B8470028F5D1BAF1000FEED1BDF83A
S2144048B0083003EB8303C3F39313C3F5A073C9F81F
S2144048C00030BDF80630C3EB0313C3F3D313C8F868
S2144048D00030DBE704B0BDE8F08700BFD10C4000F5
S2144048E0610C400080B5A6B0514C04AB94E807007C
S2144048F003C31A8013AD04F10C060FCE0FC50FCEBE
S2144049000FC533682B6001AB04F1300207CA03C3FE
S2144049101A700AAD3C340FCC0FC50FCC0FC52368B8
S2144049202B7000240994434B08934A268DF8246044
S214404930414B07931320414B9847414D07A92846C2
S214404940404B98470223324629461EA83E4DA8476C
S214404950224606211EA83D4DA847012201461EA814
S2144049603B4EB0473B483C4B9847224607211EA843
S214404970A847202201461EA8B047224607211EA867
S214404980A847411C102289B21EA8B04722460721DC
S2144049901EA8A847811C4B2289B21EA8B0472246B3
S2144049A007211EA8A847C11C842289B21EA8B0476A
S2144049B0224608211EA8A84704AA01461EA8274F3B
S2144049C0B847224609211EA8A84713AA01461EA892
S2144049D0B84722462E211EA8A84701AA01461EA86F
S2144049E0B847224638211EA8A8470AAA01461EA84C
S2144049F0B847224606211EA8A847811C012289B234
S214404A001EA8B047164C174F174E02E06420174BAF
S214404A1098471EA8A0470028F8D01DAA1CA91EA883
S214404A20B84700231A461CA93068114DA847EDE741
S214404A300CB44000801A060080D1F008A51D400046
S214404A4000800140F11F4000C9084000610B400053
S214404A50190C4000D828320001004020A10B40002D
S214404A60610C400075484000D8C84020653840007A
S214404A70792C400070B582B010201E4CA0470A200A
S214404A80A04709234FF080524FF0205110201A4C77
S214404A90A04709234FF400224FF020510A20A04798
S214404AA0164C174B009350234FF08052102120464F
S214404AB0144EB047144D154B009350234FF400222C
S214404AC00A212846B0474FF080512046104CA04758
S214404AD04FF400212846A0470E4B4FF480321A6010
S214404AE0A02283F810234FF48061196083F80A23CC
S214404AF002B070BDA51D40002919400000140E40AC
S214404B00C5424000B11B4000000E0E40E942400046
S214404B10EB19400000E100E02DE9F04F95B000228F
S214404B2008210A20954CA047954B186095484FF4AD
S214404B30A07303604FF4F0734360934B8360C3608D
S214404B40924B9847032200210120A047904B1860C3
S214404B50032200210120A0478E4B1860032200212B
S214404B600120A0478C4B1860032200210120A0475B
S214404B708A4B18608A4B98471E210020894B9847DD
S214404B80894B98470020894B984746228849894850
S214404B90894B98471E27894EDFF85492DFF8548297
S214404BA0DFF854B2E6E023462A46214679480068B4
S214404BB0B047012843D023462A4621467448006819
S214404BC0B047012869D023462A4621467C480068DB
S214404BD0B047012800F0828023462A4621466F4887
S214404BE00068B047012800F0A08023462A4604A962
S214404BF063480068B0470028D5D020466B4B98479E
S214404C00059A04996F48704B9847049BE73B452BA1
S214404C10C9D8059B143B472BC5D84FF0010A14A9A9
S214404C2041F844AD5C4B1868684B9847CDF800A0F7
S214404C3040F21D13372266494846C047B3E707B1DE
S214404C400A3F3A46634906A8D8474F48624B9847BA
S214404C504FF4CD734FF492724FF4B47140F2071094
S214404C60DFF888A1D0474FF0010ACDF800A04FF4F6
S214404C70B473DA2206A94846C047CDF800A04FF4E0
S214404C80B47340F2251255494846C047C7F16402FE
S214404C9047494848484B98478DE7632F98BF0A379F
S214404CA03A464C4906A8D8474FF0010ACDF800A02E
S214404CB04FF4B473DA2206A94846C047CDF800A0A0
S214404CC04FF4B47340F2251244494846C047C7F1F2
S214404CD0640237493748384B984774E7404B5C6620
S214404CE09A6E404B1A60642303FB02F33E4AA2FBD3
S214404CF003129B1A02EB5302D20A364906A8D8473B
S214404D002148354B98474FF4C9737C224FF4B47111
S214404D103220DFF8D8A0D047012300934FF4B47375
S214404D20342206A94846C04756E70022294906A825
S214404D30D8471548284B984740F24F13DF2240F299
S214404D401D113720294CA047012400944FF4B4731A
S214404D50DA2206A94846C04700944FF4B47340F29E
S214404D6025121E494846C047642211491148124B35
S214404D709847002700244FF4FA7536E7FD2B40008D
S214404D80D8C84020C0C84020FCFCFC003D15400070
S214404D90BCC84020B4C84020DCC84020A8C840203A
S214404DA0754A400089464000054740002D47400070
S214404DB068C8402000000240DB0640003D3040000E
S214404DC0D4C840203C5F4500DD4F40005D2F40008A
S214404DD0485F4500505F4500B1144000545F4500B1
S214404DE000C00340ACC8402001011000011740003D
S214404DF06CB44000954740002159400000B58BB048
S214404E00444B9847444B984701224FF00061434833
S214404E10434B9847434D444B1D60444A444B1A60AD
S214404E20444A454B1A604FF4E1330493C02305933C
S214404E304FF4006306930024079408940E203F4BDB
S214404E4098473F4A04A928463E4B984728463E4B3B
S214404E50984728463D4B98473D4E336821469868CC
S214404E603C4DA847336821465868A84703940294A7
S214404E700194009423464FF4007237493748384C23
S214404E80A047012802D03748374B98470023039362
S214404E900293019300934FF4007234493448304CE7
S214404EA0A047012802D02F482F4B98470023039352
S214404EB00293019300934FF400722E492E48284CDB
S214404EC0A047012802D02D48274B9847002303933C
S214404ED00293019300934FF4007226492848204CD1
S214404EE0A047012802D025481F4B9847002303932C
S214404EF00293019300934FF400721E492148184CC8
S214404F00A047012802D01D48174B98471E4B98478C
S214404F10FEE700BF410D4000D10F4000000E0E409E
S214404F20391840000080024024C84020C544400054
S214404F3020C84020E94340001CC84020A51D400032
S214404F4080D1F008192240006D22400073224000B4
S214404F501400402081574000DC5E4500E548400094
S214404F601D334000E05E4500DD4F4000045F4500D5
S214404F70194B4000085F450035434000185F450028
S214404F80F5474000394640005135400070B50F4E59
S214404F900F4D761BB61018BF002405D0013455F8C7
S214404FA0043B9847A642F9D10A4E0B4D761B51F06A
S214404FB037F9B61018BF002406D0013455F8043B24
S214404FC09847A642F9D170BD70BD00BF2C6245001F
S214404FD02C624500346245002C6245000FB400B593
S214404FE0074983B004AB086853F8042B81680193E3
S214404FF001F0A2FF03B05DF804EB04B0704700BFB9
S21440500014004020024B0146186800F003B800BF69
S214405010140040202DE9F04F01F10B06162E83B008
S214405020054640F29E8036F0070600F1BD80B1424C
S21440503000F2BA8000F086FBB6F5FC7FC0F09382A3
S214405040730A00F0B880042B00F27981B30903F1AB
S214405050390003F1380EC300BF4F3B44A3F10801AB
S2144050605C68A14206D10CE0002A80F2AA80E4687F
S214405070A14206D0636823F003039A1B0F2AF3DD90
S21440508070463C69DFF8E4E2744500F0AB81636843
S21440509023F003039A1B0F2A00F39081002AC7F8D7
S2144050A014E0C7F810E080F29D80B3F5007F80F0F2
S2144050B06181DB0803F1010C99107A6857F83C804F
S2144050C0C4F8088001238B4007EBCC011343083912
S2144050D0E1607B6047F83C40C8F80C4082100124F1
S2144050E094409C4200F28B801C4206D120F0030084
S2144050F064001C4200F10400FAD007EBC009CC461D
S2144051008046DCF80C309C4507D16DE1002A80F2E1
S2144051107B81DB689C4500F06781596821F003017C
S2144051208A1B0F2AF2DDD3F80CC0D3F80880009310
S2144051309C19284646F0010642F001055E60C8F814
S2144051400CC0CCF808807C613C61C4F80CE0C4F824
S21440515008E065605A5000F0FBFA009B03F1080433
S2144051601EE0102920D800F0EDFA10261823022061
S214405170794F3B44A3F108025C68944200F03D81BD
S2144051806368E168A66823F00303234428465A6808
S214405190F16042F001028E605A6000F0D9FA08349D
S2144051A0204603B0BDE8F08F00240C2320462B6039
S2144051B003B0BDE8F08F40204FF400734FF03F0E31
S2144051C04AE72344E1685A68A66842F00102F16063
S2144051D028468E605A6000F0BBFA0834204603B07A
S2144051E0BDE8F08F234428465A6842F001025A60D0
S2144051F000F0AEFA0834204603B0BDE8F08FBC6835
S214405200636823F00308B04504D3A8EB06030F2BCE
S21440521000F38580DFF85891504BD9F800201B6882
S2144052200132334404EB080A00F0558103F58053FD
S2144052300F3323F47F6B2BF00F0B5946284600F0B4
S2144052408DFA411C024600F0FC80824500F2F78051
S214405250434B19685944196000F04D81D9F8000055
S21440526001301BBFA2EB0A0A5144C9F8002019605E
S21440527012F0070100F01581C1F10800C1F5805118
S2144052800244083102EB0B09C9F30B09A1EB0909EB
S214405290494628460193009200F060FA431C9DE878
S2144052A00C0000F04381801A484440F00100196821
S2144052B0BA604944BC425060196017D0B8F10F0F2D
S2144052C040F2FB806068A8F10C0222F0070204EB73
S2144052D0020E00F001004FF0050C10430F2A6060EC
S2144052E0CEF804C0CEF808C000F217811D4BBC684B
S2144052F01A68914288BF19601B4B1A6891426268CF
S21440530088BF196022F003029642A2EB060301D83A
S2144053100F2B04DC284600F01BFA002440E7A219B5
S21440532043F0010346F0010666602846BA605360C3
S21440533000F00EFA0834204603B0BDE8F08F142B78
S21440534071D9542B00F2A380330B03F16F0003F1A5
S2144053506E0EC30080E600BF4004402090C7402049
S21440536060C7402088C740208CC740204804402063
S214405370480840205A0A042A5BD9142A00F2AE8014
S21440538002F15C01C9005B3207EB010C7958ACF1C5
S214405390080C8C4500F088804A6822F0030293424D
S2144053A073D289688C45F7D1DCF80C207B68E260C4
S2144053B0C4F808C09460CCF80C408FE6A11946F0BB
S2144053C0010C42F00106C4F804C0284679613961F0
S2144053D0C1F80CE0C1F808E04E60E25000F0B8F9C1
S2144053E00834DDE67B6879E608F1010818F0030F1B
S2144053F00CF1080C7FF485AE2DE0DC68A34208BFB4
S21440540002303FF43EAEBBE619441C464A68DB68B1
S21440541054F8086F42F001024A602846F3609E60E6
S21440542000F096F9BCE603F15C0003F15B0EC300A6
S21440543012E69A0902F13901C9003832A4E7BC42A3
S21440544054D0BC68626822F003025DE759F8083918
S214405450994540F0868010F0030F00F1FF30F5D1FB
S2144054607B6823EA04037B6064009C423FF6C7AE39
S214405470002C3FF4C4AE1C4240467FF43EAE64006F
S2144054801C4200F10400FAD037E68C468CE7B3F5B0
S214405490AA7F15D8F30B03F1780003F1770EC3000B
S2144054A0DAE54FF48051EDE67B689210012101FA6F
S2144054B002F213437B60624679E70123536029E793
S2144054C040F25452934222D8B30C03F17D0003F1CC
S2144054D07C0EC300C0E503F1100BAEE6542A29D873
S2144054E01A0B02F16F01C9006E324DE7204B196866
S2144054F059441960B2E6CAF30B0000287FF4AEAEFA
S21440550008EB0B03BA6843F001035360EEE67F20D6
S2144055104FF47E734FF07E0E9EE504F10801284658
S214405520009303F0E5FD009B1968DFE601204FF08D
S2144055300009BCE6B2F5AA7F05D8DA0B02F178017D
S214405540C900773220E740F254518A4205D89A0C77
S21440555002F17D01C9007C3216E74FF47E717E224F
S21440556012E77B6880E7F00806F1080300E600BF14
S21440557060C74020844641EA000313F003036DD120
S214405580403A41D351F8043B40F8043B51F8043BC1
S21440559040F8043B51F8043B40F8043B51F8043BC8
S2144055A040F8043B51F8043B40F8043B51F8043BB8
S2144055B040F8043B51F8043B40F8043B51F8043BA8
S2144055C040F8043B51F8043B40F8043B51F8043B98
S2144055D040F8043B51F8043B40F8043B51F8043B88
S2144055E040F8043B51F8043B40F8043B51F8043B78
S2144055F040F8043B51F8043B40F8043B51F8043B68
S21440560040F8043B403ABDD2303211D351F8043B07
S21440561040F8043B51F8043B40F8043B51F8043B47
S21440562040F8043B51F8043B40F8043B103AEDD2B6
S2144056300C3205D351F8043B40F8043B043AF9D207
S214405640043208D0D2071CBF11F8013B00F8013BDA
S21440565001D30B8803806046704700BF082A13D3E7
S2144056608B078DD010F003038AD0C3F10403D21AFF
S214405670DB071CBF11F8013B00F8013B80D331F833
S214405680023B20F8023B7BE7043AD9D3013A11F8B3
S214405690013B00F8013BF9D20B7803704B7843701E
S2144056A08B7883706046704770B4860746D0541E29
S2144056B0002A41D0CAB2034602E014F1FF343BD37D
S2144056C003F8012B9D07F8D1032C2ED9CDB245EA1D
S2144056D005250F2C45EA054519D903F11002264643
S2144056E0103E0F2E42F8105C42F80C5C42F8085C04
S2144056F042F8045C02F11002F2D8A4F1100222F043
S2144057000F0204F00F041032032C13440DD91E462A
S2144057102246043A032A46F8045BFAD8221F22F0AF
S21440572003020432134404F003042CB1C9B21C44EF
S21440573003F8011B9C42FBD170BC704714460346DD
S214405740C2E700BF014803F07BBF00BFF0C840205F
S214405750014803F077BF00BFF0C8402038B5074C7B
S2144057600023054608462360FCF7CEFE431C00D0C7
S21440577038BD2368002BFBD02B6038BD04C94020C1
S21440578000290CBF022200224FF4806300F000B8CC
S2144057902DE9F043614C256883B004460F46904699
S2144057A01E4615B1AB6B002B64D0B8F1020F06D085
S2144057B0B8F1010F00F29F80002EC0F29C80636E0D
S2144057C0D80734D52146284603F014FB216B41B157
S2144057D004F14003994202D0284603F089FC002396
S2144057E02363B4F90C300022A26162601A063AD4F0
S2144057F023F44A6323F00303B8F1020FA3811DD0BC
S21440580001AB6A462146284603F01EFFA38918438B
S214405810A081002E32D1009E3046FFF7F3FB0746AC
S21440582000286BD0A38943F08003A38128E0A38996
S2144058309905C7D4A06D03F003FFC3E70025616E4A
S214405840002604F1430243F002030120A660CE077F
S214405850A38122602261606101D498053ED5284626
S21440586003B0BDE8F0832169284603F041FCB4F953
S2144058700C30BDE7284603F015FB96E7002FCBD04B
S214405880AB6B002B33D0009BB4F90C2027609E42B4
S2144058901CBF42F40062A281B8F1010F04BF42F07F
S2144058A00102A28192B212F00803276166610ED00F
S2144058B0D1071AD5656E7642002315F00105A6611C
S2144058C0A36009D00025284603B0BDE8F083A36056
